:02000002B0004C
:1040000000400B0014850B00000006000C000502A8
:0840100004016810000000002B
:04401800487E0B00D3
:10401C0009480A49884208B505D0094A824202D0AB
:10402C00121A03F043FD0748074A0021121A03F045
:10403C0065FD014808BD00BF2CE4032058840B002B
:10404C00C0E40320C0E40320EDE7032070B5074E65
:10405C00074C02F051F8A41BA4080025AC4200D177
:10406C0070BD56F8043B98470135F7E704840B0004
:10407C0028840B0000F0E2B908B500F089F9BDE81E
:10408C00084001F0F1BF00F03FBE00F03DBE00F073
:10409C0043BE000008B5034A03490C2000F050FD54
:1040AC00FEE700BF2D490B005C7E0B000078B0FAD8
:1040BC0080F0400970470123037070477047006A15
:1040CC000368DB6818470000024B01221A700020BD
:1040DC00704700BF18E5032008B5054B188802F09F
:1040EC00F9FF18B9034A13680133136008BD00BF08
:1040FC0048E40320C0E40320012A02D1016000201F
:10410C007047022A04BF0B680360F8E710B40C4632
:10411C000368116820685DF8044B18470A4B10B50A
:10412C000446036001F052F9214601F08AFB02F0CB
:10413C0095FB02F087FB2046044B40F8043B01F052
:10414C001BFA204610BD00BFBC7F0B00A47F0B00E8
:10415C0010B50446FFF7E2FF20462421FFF797FF36
:10416C00204610BD10B58368044613B103220146E6
:10417C009847204610BD0EB400B58CB00DAA4FF078
:10418C00200C52F8041B0392CDE9001200230168A5
:10419C0004AA1E20CDE904C300F0DAFC0CB05DF8D3
:1041AC0004EB03B07047000010B5714A714B516FAE
:1041BC00ADF5AE6D5CA85891116F5791D16E5691BB
:1041CC00916E5591516E5491116E5391D16D5291D6
:1041DC00916D5191516D5091116D4F91D16C4E91DA
:1041EC00916C4D91516C4C91116C4B91D16B4A91DE
:1041FC00916B4991516B4891116B4791D16A4691E2
:10420C00916A4591516A4491116A4391D1694291E5
:10421C00916941915169409111693F91D1683E91E9
:10422C0091683D9151683C9112683B92524A516F92
:10423C003A91116F3991D16E3891916E3791516ECF
:10424C003691116E3591D16D3491916D3391516DD3
:10425C003291116D3191D16C3091916C2F91516CD7
:10426C002E91116C2D91D16B2C91916B2B91516BDB
:10427C002A91116B2991D16A2891916A2791516ADF
:10428C002691116A2591D1692491916923915169E3
:10429C00229111692191D168209191681F915168E7
:1042AC001E9112681D925A6F1C921A6F1B92DA6E35
:1042BC001A929A6E19925A6E18921A6E1792DA6DA9
:1042CC0016929A6D15925A6D14921A6D1392DA6CAD
:1042DC0012929A6C11925A6C10921A6C0F92DA6BB1
:1042EC000E929A6B0D925A6B0C921A6B0B92DA6AB5
:1042FC000A929A6A09925A6A08921A6A0792DA69B9
:10430C0006929A6905925A6904921A690392DA68BC
:10431C0002929A6801925A6800921B68174A4FF4ED
:10432C00806100F009FD164B16491B788DF80030A2
:10433C0009683C235CAA5AA802F04AF85B9C7CB141
:10434C006368013B63605BB9236820469B689847B0
:10435C00A368013BA3601BB923682046DB68984720
:10436C0009490A485CAAFFF706FF0DF5AE6D10BDB2
:10437C0094E503200CE603201CE50320717E0B0062
:10438C00D0E4032044E40320817F0B00ACE603203F
:10439C002DE9F8432DED028BDFF87C80194E1A4D78
:1043AC001A4F1E244FF000093B68194848F8043B8B
:1043BC000121C7F8009000F046FAB2EE048A20EE14
:1043CC00080A1448BDEEC00A0121A6EC010A00F04F
:1043DC003AFA20EE080A4FF47A70BDEEC00AA5EC4A
:1043EC00010A01F015FE013CDED100F06DFC28B194
:1043FC00BDEC028BBDE8F843FFF7D6BEBDEC028BDB
:10440C00BDE8F8831CE5032094E50320C0E40320F9
:10441C00F8E4032008E503200CE6032038B500235C
:10442C0083608B6804460D462BB102229847EB68DB
:10443C00E360AB68A360204638BD000030B52E4C5D
:10444C008BB002F00BFA4FF4165102F0F7F900257D
:10445C002088022102F014FE0095284920884FF094
:10446C00FF33022202F022FA254A264912780978F3
:10447C002548802300F057F9244A254912780978F9
:10448C002448802300F04FF9234B1F4893ED000A7A
:10449C0000F0F3F90A211C4800F0E9F91F4B1D4804
:1044AC0093ED000A00F0E9F91A480A2100F0DFF94F
:1044BC001B4B02931B4B059302A91B4B049306A8A1
:1044CC00FFF7ACFF089B7BB11020FFF7DCFD044627
:1044DC0050B106A9FFF7A2FFCDE9005513491448C6
:1044EC002B46224600F000FC06A8FFF73BFE02A874
:1044FC00FFF738FE0BB030BD48E40320E5400B005D
:10450C002CE4032034E40320F8E4032030E40320FB
:10451C0038E4032008E503203CE4032040E40320B6
:10452C00D5400B0019410B0005410B00F3610B004A
:10453C008F7F0B0070B5D0E900531426044606FBA0
:10454C000356AE4204D0284600F088FC1435F8E738
:10455C00206800F0E1FB204670BD8842F8B50446A7
:10456C000D46164616D9904215D2A2F11406751AAC
:10457C00A1F114072C44B7421CD02CB13146204673
:10458C0000F0D5FC337C2374304600F067FC143EFD
:10459C00143CF0E70ED0B5420CD02CB12946204685
:1045AC0000F0C5FC2B7C2374284600F057FC143516
:1045BC001434F0E7F8BD2DE9F0410023C0E90033D5
:1045CC0083604F689F4204460E4623DD4FF014086B
:1045DC0008FB07F000F098FB0546D8B1D4E90012AF
:1045EC0008FB0212FFF7B9FF206800F095FB25606D
:1045FC00A760D6E9007308FB0378B84508D03946A4
:10460C00284600F0AEFC3B7C2B7414371435F4E7D1
:10461C00736863602046BDE8F081000070B5294BDB
:10462C00294A01251D70294B00248CB09A60C3E9DE
:10463C000044284600F0A4FA2146284600F0B0FABF
:10464C00CDE90044029402F009F9214C0546694673
:10465C0003A8FFF7B0FF264603A906A8FFF7ABFF98
:10466C001C4B46F8043B06A909A8FFF7A4FF09AAAE
:10467C001E21304601F0C8F909A8FFF75BFF06A818
:10468C00FFF758FF144B2360256203A8FFF752FF76
:10469C00124B236002F0E2F84FF4165102F0CEF800
:1046AC0000F094FE214601F085F86846FFF742FFC2
:1046BC000B4800F021F80B480CB0BDE8704000F03E
:1046CC001BB800BFD0E403200000FFFFC4E40320AC
:1046DC00D4E40320A47F0B00C0800B00BC7F0B0034
:1046EC00F8E4032008E50320704710B510210446B8
:1046FC00FFF7CDFC204610BD034A02600022826009
:10470C004FF07E52C2607047E87F0B00202908D022
:10471C00402914BF0123032383710021007902F087
:10472C00C0BC0223F8E738B504461046227161710B
:10473C0001211D4602F0A4FC6079002102F0A0FCCE
:10474C0029462046BDE83840FFF7E0BF2DE9F0418F
:10475C00044616461F4600F0EBF8DFF88C80054641
:10476C00607902F0B7FC70B100F0E2F8401B63EB2B
:10477C000303B042BB4106DA00F0DAF8C8F80000D7
:10478C0000F09AFAECE7607902F0A4FC064648BB0C
:10479C0021796079012202F0B0FC217901220746CF
:1047AC00607902F0AAFC217905460122607902F0B9
:1047BC00A4FC8046A379B34209D92079012102F0E7
:1047CC0070FC2079002102F06CFC0136F2E72B0220
:1047DC0043EA074343EA080547F3C01045EA006083
:1047EC00BDE8F0810020FBE740E703202DE9F04114
:1047FC0007460C46C1B10025DFF830802E46002359
:10480C004FF47A723846FFF7A1FF064400F090F897
:10481C000135C8F8000000F04FFAEBB29C42EED81C
:10482C0096FBF4F0BDE8F0810846FBE740E7032077
:10483C0010B50446FFF7DAFFA368C01A02F05CFE5D
:10484C0041EC100B10BD70B50646FFF7F1FFF06898
:10485C0055EC104B02F062FE02460B4620462946F0
:10486C0002F0DEFF03F0C4F800EE100A70BD10B5C4
:10487C000446FFF7BBFFA06010BDB5EE400AF1EE99
:10488C0010FA08BFB7EE000A80ED030A704700006B
:10489C0008B5024B1B689B68019308BD68020300B6
:1048AC0008B5024B1B68DB68019308BD6802030066
:1048BC0008B5024B1B689B68019308BD2C020300D2
:1048CC0008B5024B1B68DB68019308BD2C02030082
:1048DC0008B5024B1B681B69019308BD2C02030031
:1048EC0008B5024B1B685B69019308BD2C020300E1
:1048FC0008B5024B1B689B69019308BD2C02030091
:10490C0008B5024B1B68DB69019308BD2C02030040
:10491C0008B5024B1B685B68019308BD18020300C5
:10492C0008B5024B1B68DB68019308BD1802030035
:10493C0008B5024B1B685B69019308BD18020300A4
:10494C0008B5024B1B685B6C019308BD4802030061
:10495C0008B5024B1B689B6C019308BD4802030011
:10496C0008B5024B1B68DB6C019308BD48020300C1
:10497C0008B5024B1B685B6D019308BD4802030030
:10498C0008B5024B1B685B69019308BD6402030008
:10499C0008B5024B1B689B68019308BD3C020300E1
:1049AC0008B5024B1B68DB68019308BD3C02030091
:1049BC0008B5024B1B681B69019308BD3C02030040
:1049CC0008B5024B1B685B69019308BD3C020300F0
:1049DC0008B5024B1B689B69019308BD3C020300A0
:1049EC0008B5024B1B68DB69019308BD3C02030050
:1049FC0008B5024B1B681B6A019308BD3C020300FF
:104A0C0008B5024B1B689B6A019308BD3C0203006E
:104A1C0008B5024B1B68DB6A019308BD3C0203001E
:104A2C0008B5024B1B681B6C019308BD3C020300CC
:104A3C0008B5024B1B681B6A019308BD28020300D2
:104A4C0008B5024B1B685B6A019308BD2802030082
:104A5C0008B5024B1B689B6A019308BD2802030032
:104A6C0008B5024B1B68DB6A019308BD28020300E2
:104A7C0008B5024B1B681B6B019308BD2802030091
:104A8C0008B5024B1B685B6B019308BD2802030041
:104A9C0008B5024B1B681B6C019308BD2802030070
:104AAC0008B5024B1B68DB69019308BD300203009B
:104ABC0008B5024B1B681B6A019308BD300203004A
:104ACC0008B5024B1B681B68019308BD4C02030020
:104ADC0008B5024B1B685B68019308BD4C020300D0
:104AEC0008B5024B1B689B68019308BD4C02030080
:104AFC0008B5024B1B681B69019308BD4C020300EF
:104B0C0008B5024B1B685B69019308BD4C0203009E
:104B1C0008B5024B1B689B69019308BD4C0203004E
:104B2C0008B5024B1B68DB69019308BD4C020300FE
:104B3C0008B5024B1B681B6A019308BD4C020300AD
:104B4C0008B5024B1B685B6B019308BD6002030048
:104B5C0008B5024B1B685B6D019308BD6002030036
:104B6C0008B5024B1B68DB6E019308BD60020300A5
:104B7C0008B5024B1B681B6F019308BD6002030054
:104B8C0008B5024B1B685B68019308BD200203004B
:104B9C0008B5024B1B685B69019308BD200203003A
:104BAC0008B5024B1B68DB6A019308BD20020300A9
:104BBC0008B5024B1B68DB6C019308BD2002030097
:104BCC0008B5024B1B685B6D019308BD2002030006
:104BDC0008B5034B1B68D3F88830019308BD00005F
:104BEC002002030008B5034B1B68D3F894300193E3
:104BFC0008BD00002002030008B5024B1B685B686F
:104C0C00019308BD4002030008B5024B1B689B686A
:104C1C00019308BD4002030008B5024B1B68DB681A
:104C2C00019308BD4002030008B5024B1B681B69C9
:104C3C00019308BD4002030008B5024B1B685B6979
:104C4C00019308BD4002030008B5024B1B689B6929
:104C5C00019308BD4002030008B5024B1B68DB69D9
:104C6C00019308BD4002030008B5024B1B681B6A88
:104C7C00019308BD4002030008B5024B1B681B6B77
:104C8C00019308BD4002030008B5024B1B685B6B27
:104C9C00019308BD4002030008B5024B1B681B6C56
:104CAC00019308BD4002030008B5024B1B685B6C06
:104CBC00019308BD4002030008B5024B1B689B68BA
:104CCC00019308BD4402030008B5024B1B685B69E5
:104CDC00019308BD4402030008B5024B1B681B6A14
:104CEC00019308BD4402030008B5024B1B685B6AC4
:104CFC00019308BD4402030008B5024B1B68DB6B33
:104D0C00019308BD4402030008B5024B1B681B68E5
:104D1C00019308BD1C02030008B5024B1B685B68BD
:104D2C00019308BD1C02030008B5024B1B689B686D
:104D3C00019308BD1C02030008B5024B1B68DB691C
:104D4C00019308BD1C02030008B5024B1B685B6A8B
:104D5C00019308BD1C02030008B5024B1B68DB6AFB
:104D6C00019308BD1C02030008B5024B1B681B6BAA
:104D7C00019308BD1C02030008B5024B1B68DB6BDA
:104D8C00019308BD1C02030008B5024B1B681B6C89
:104D9C00019308BD1C02030008B5024B1B685B6C39
:104DAC00019308BD1C020300002240681146FFF766
:104DBC005BBF002240681146FFF766BF40680022C7
:104DCC00FFF75ABF4068002281F00101FFF744BF92
:104DDC00002340681A461946FFF736BF0023406887
:104DEC001A461946FFF728BF002240681146FFF704
:104DFC001BBF002240681146FFF706BF4068002227
:104E0C000221FFF709BF002340681A46FFF7F4BEE2
:104E1C00024B03225A60024A1A60704784E6032050
:104E2C00F87F0B0010B5044608462170FFF738FEDA
:104E3C0000236360204610BD054B02221A60054B0F
:104E4C00054A9A600020C3E90000FFF799BE00BF35
:104E5C0098E603208CE603200000FFFF10B5044603
:104E6C000068FFF759FF204610BD10B504460068D6
:104E7C0008B1FFF751FF0023C4E90133236010BDD3
:104E8C0038B504460D4600680131FFF74DFF10B1EF
:104E9C00C4E90005012038BD10B50368044623B1F0
:104EAC0043688B4201D3012010BD2046FFF7E8FF79
:104EBC000028F9D0A368002BF5D122681370F2E713
:104ECC0037B50D46114601920446FFF7E5FF019AEE
:104EDC0028B92046FFF7C9FF204603B030BDA260B9
:104EEC002946206802F0E2FD2268A3680021D15413
:104EFC00F2E738B5054600680C4670B16A688B68F5
:104F0C009A4208D3096831B102F04FFEA368AB6036
:104F1C000023A36038BDFFF7FFFE23682B60636896
:104F2C006B60A368AB600023C4E90033F1E710B5F4
:104F3C000023C0E90033044683600373FFF7D9FFF5
:104F4C00204610BD884210B5044605D00B682BB125
:104F5C008A681946FFF7B4FF204610BDFFF785FF9E
:104F6C00FAE710B500230446C0E9003383600373ED
:104F7C00FFF7E8FF204610BD10B54368013B04461F
:104F8C00436063B903689B689847A368013BA360BF
:104F9C002BB923682046DB68BDE81040184710BDCC
:104FAC0070B5D0E90053044605EB0316AE4204D0AD
:104FBC002846FFF753FF1035F8E72068FFF7ACFEE3
:104FCC00204670BD10B50446006808B1FFF7D4FF49
:104FDC00204610BD13B50B460246D0E900016C46C5
:104FEC0084E8030093E8030082E8030094E80300DC
:104FFC0083E8030002B010BD024800230360FFF7F2
:10500C009FBC00BF9CE60320F8B506460D468F18E2
:10501C000024BD420CD0336815F8011B9B68304648
:10502C009847031E01DB1C44F3E7002C08BF1C4609
:10503C002046F8BD13B50446084659B1019102F05B
:10504C00DAFD23680199DB680246204602B0BDE810
:10505C001040184702B010BD03689B68184738B55C
:10506C000D210546FFF7F8FF0A2104462846FFF7F5
:10507C00F3FF204438BD30B58BB00023012A8DF8E6
:10508C00243098BF0A2209AC0D46B1FBF2F101FBAA
:10509C00125303F0FF03092B94BF30333733DBB2C9
:1050AC00AA4204F8013DEFD92146FFF7C3FF0BB02C
:1050BC0030BD2DE9F04186B000AF05460E46381DD7
:1050CC00142114463B60FFF73FFE13280ED8391D00
:1050DC002846FFF7AFFF04461EB12846FFF7BFFF77
:1050EC00044420461837BD46BDE8F08100F10803A2
:1050FC0023F00703E846ADEB030D2246411C3B6849
:10510C006846FFF721FE69462846FFF793FF0446E1
:10511C00C546E1E780680368DB68184770470846B6
:10512C0011B10B685B681847704770477047704740
:10513C00704738B504460D4600682E2102F021FD5B
:10514C002368C31A2B6023B1037803B101302368A1
:10515C002060184638BD10B50C210446FEF797FFA9
:10516C00204610BD10B504210446FEF790FF2046E2
:10517C0010BD10B504210446FEF789FF204610BD72
:10518C00FFF7EEBB08B502F006FDB0FA80F040095F
:10519C0008BD704710B50C4601F060FB844210D07E
:1051AC0001F0ECFF844205D101F0E8FFBDE81040AE
:1051BC0001F0FFBB2CB1236820465B68BDE81040B2
:1051CC00184710BD0B6803604B68436013B15A68F5
:1051DC0001325A60704713B504460846019102F03B
:1051EC000AFD01990246204602B0BDE8104001F0CC
:1051FC00F9BE13B504460846019102F0FCFC236885
:10520C000199DB680246204602B0BDE81040184701
:10521C0007B503688DF80710DB6801220DF1070153
:10522C00984703B05DF804FB0EB403B503AB002143
:10523C0053F8042B006A0193FFF73BFF02B05DF8B3
:10524C0004EB03B070470A6802604A6842600022AF
:10525C00C0E9022210B502618C688460CC68C4601D
:10526C000C698A60CA6004610A6110BD2DE9F74FB0
:10527C00D0E900844FF0140A00930AFB04F4184B95
:10528C00A41017465C434546002C21DD66100AFB32
:10529C0006F005EB00093A46B9F804B0285801911C
:1052AC005F4528BF5A4602F0AEFC002801994FF02A
:1052BC0001030BD15F4503D1009A13703446E3E729
:1052CC00FCD9A61B09F11405013EF7E7F9DBF5E75C
:1052DC00A5EB08050248AD10684303B0BDE8F08F9C
:1052EC00CDCCCCCC7FB50369057E019103B3F9B16C
:1052FC00002600F10C04039603A901A8FFF719FF7F
:10530C000146A8B10DF10B03039A8DF80B602046F2
:10531C00FFF7ACFF9DF80B3053B12368142404FB4A
:10532C000034083434F9023C002BA8BFDDB2E3E7AB
:10533C00284604B070BD000010B5094C2378BFF3AB
:10534C005B8FDB0709D42046FEF7B0FE28B1204660
:10535C00FEF7B1FE034802F09BFB034810BD00BFF3
:10536C00A4E6032037510B004CE4032010B5094C84
:10537C002378BFF35B8FDB0709D42046FEF796FE3C
:10538C0028B12046FEF797FE034802F081FB034844
:10539C0010BD00BFA8E603209F510B0050E4032072
:1053AC0038B500250446C0E90055C0E904558560B0
:1053BC00856140F8245FFFF7C3FAFFF7BDFFE0619A
:1053CC00FFF7D4FF25732062204638BD10B50A4C78
:1053DC002378BFF35B8FDB070CD42046FEF766FE09
:1053EC0040B10648FFF7DCFF2046FEF764FE044898
:1053FC0002F04EFB014810BDA0E60320B0E60320EE
:10540C002D590B00024A034903480023FFF7B0BB98
:10541C0011570B009D560B001D560B0000231A460E
:10542C0019461846FFF7A4BB37B58D680446684685
:10543C00FFF7C8FE6A462946204601F0F3FC01A896
:10544C00FFF7C0FD204603B030BD37B5CD6804462C
:10545C006846FFF7B7FE6A462946204601F0BEFCB7
:10546C0001A8FFF7AFFD204603B030BD37B50D697D
:10547C0004466846FFF7A6FE6A462946204601F018
:10548C0056FC01A8FFF79EFD204603B030BD00007E
:10549C0070B58AB00D46014604A8FFF7C5FF144E3F
:1054AC0004A801F0D7FCE8B104A96846FFF7CDFFCA
:1054BC0002983146FFF766FE044610B12C1E18BF49
:1054CC00012401A8FFF77EFD002CE9D004A9684651
:1054DC00FFF7CCFF684601F060FC286001A8FFF7DD
:1054EC0071FDDDE705A8FFF76DFD0AB070BD00BFCB
:1054FC002C800B0037B50C4620461349154602F09C
:10550C004AFB50B901F0AAF94FF4165101F096F983
:10551C0003B0BDE8304001F0A1B90C49204602F0BF
:10552C003AFB78B94FF4165301A928460193FFF7BB
:10553C00AFFF01F023FE019901F038FA01F01EFED5
:10554C0003B030BD0020FBE731800B0038800B002E
:10555C0070B5D0E900531426044606FB0356AE4240
:10556C0005D005F10800FFF7F3FF1435F7E72068C5
:10557C00FFF7D2FB204670BD10B504460C30FFF788
:10558C00E7FF2046FFF70CFD204610BD10B5044B7D
:10559C00044640F8043BFFF7EFFF204610BD00BF68
:1055AC00A47F0B0010B50446FFF7F0FF2046242122
:1055BC00FEF76DFD204610BD10B5034B036004468D
:1055CC00FFF7E4FF204610BDD8800B0010B5044651
:1055DC00FFF7F2FF20462421FEF759FD204610BDAF
:1055EC000022C0E9002210B582600C6804604C688F
:1055FC0044608C680A604A6084608A6010BD10B593
:10560C00036804461868FFF7B3F9204610BD000084
:10561C002DE9F04F87B0804603931C4B5B68C3F3B6
:10562C000803894616466BB9FFF7D0FE044600F115
:10563C002403406A0593FFF7A3FD237B2BB105A838
:10564C00FFF7DDFF07B0BDE8F08F01232373D4E92A
:10565C0000535FFA89F905EB830AAA4512D055F875
:10566C00047B3146381DFFF73DFE8145F5D33B6881
:10567C00039A0092D3F808B04A463346414638465E
:10568C00D847EAE700232373D9E700BF00ED00E019
:10569C002DE9F74F9B461A4B5B68C3F30803804612
:1056AC00894616466BB9FFF791FE044600F12403B8
:1056BC00406A0193FFF764FD237B2BB101A8FFF730
:1056CC009EFF03B0BDE8F08F01232373D4E9005390
:1056DC00F6B205EB830A55450ED055F8047B5946B6
:1056EC00381DFFF7FFFD8642F5D33B684A46DB6861
:1056FC00414638469847EEE700232373DEE700BFA8
:10570C0000ED00E02DE9F341164B5B68C3F3080391
:10571C0005460F461BBBFFF759FE00F12403044658
:10572C00406A0193FFF72CFDD4E90063462406EB95
:10573C008308B04509D101A8FFF761FFA542B4BFAA
:10574C000020012002B0BDE8F08156F8040B394668
:10575C000430FFF7C7FD8442A8BF0446E9E70020E8
:10576C00F0E700BF00ED00E0F8B5D0E901539D4231
:10577C0004460E460DDB6F1C002F006804DDB900DB
:10578C00FFF7D2FA18B9F8BDFFF7C6FA002020606F
:10579C00A7602768626807EB85019200A2EB85027F
:1057AC00081D02F091F947F82560636801336360C6
:1057BC000120E8E737B500F124030446406A019361
:1057CC000D46FFF7DDFCD4E9003203EB8202934275
:1057DC0019460BD00968A94203F10403F7D101A8BB
:1057EC00FFF70DFF0025284603B030BD29462046A3
:1057FC00FFF7BAFF05460028F1D06368012B01D1F1
:10580C00FFF700FE01A8FFF7FAFEECE770B50446BF
:10581C00D0E900020B4600EB820282420FD0014617
:10582C001D6851F8046BAE4207D1521A02F04CF9C4
:10583C006368013B6360012070BD0846EDE7002002
:10584C00FAE71FB500F124030446406A0191039363
:10585C00FFF796FC01A92046FFF7D8FF18B1636843
:10586C000BB9FFF7DBFD03A8FFF7C9FE04B010BDB1
:10587C0070B5D0E904561823044603FB0656AE4215
:10588C0015D005F110012046FFF7C0FF63680BB976
:10589C00FFF7C4FDE06929690368DB68984769690B
:1058AC0019B1206A0368DB6898471835E7E7D4E933
:1058BC000453182606FB0356AE4204D02846FFF7C5
:1058CC00CDFA1835F8E70023636170BD73B5044653
:1058DC00FFF7A4FD04F12403606A0193FFF750FC69
:1058EC002046FFF7C5FF01A8FFF789FE606A08B1E3
:1058FC00FFF72EF8D4E90453182606FB0356AE42E4
:10590C0004D02846FFF7AAFA1835F8E72069FFF704
:10591C0003FA2068FFF700FA204602B070BD0000C1
:10592C000148FFF7D3BF00BFB0E603208842F8B5AB
:10593C0004460D46164615D9904214D2A2F114060F
:10594C00751AA1F114072C44B7421AD01CB1314678
:10595C002046FFF778FC06F10800FFF7F9FD143E2E
:10596C00143CF1E70DD0B5420BD01CB129462046B2
:10597C00FFF769FC05F10800FFF7EAFD1435143454
:10598C00F1E7F8BD8842F8B504460D46164614D921
:10599C00904213D2A2F11006751AA1F110072C44F3
:1059AC00B74218D01CB131462046FFF7C0FA30463A
:1059BC00FFF754FA103E103CF2E70CD0B5420AD077
:1059CC001CB129462046FFF7B2FA2846FFF746FAE3
:1059DC0010351034F2E7F8BD70B50E1E054611DD1A
:1059EC003001FFF791F9044658B1D5E9001201EBEB
:1059FC000212FFF7C7FF2868FFF78EF92C60AE6024
:105A0C00012070BD0024F6E72DE9F04F904695B0CB
:105A1C0000230391D8F804100A9346229942C0E956
:105A2C000033C0E90233C0E90433CDE9083304463E
:105A3C00027623DCD8E90057142303FB0757AF4247
:105A4C003BD029460BA8FFF772FA0BA90FA8099EA9
:105A5C00FFF76DFADDE9091399421BDA089B099AE5
:105A6C0003EB061603EB0212314606F11000FFF7AA
:105A7C0089FFEEB9099B0133099311E008A8FFF7E0
:105A8C00ABFF0028D6D108A8FFF78AFA204615B03C
:105A9C00BDE8F08F013108A8FFF79EFF0028DDD18B
:105AAC000FA8FFF7DBF90BA8FFF7D8F91435C6E7F9
:105ABC000FA93046FFF73BFADCE70026CDE90B6671
:105ACC000D964FF01409DDE908239E427CDA330170
:105ADC00D35806930BB90136F5E70023079309FB5E
:105AEC0006F302930BAD07A906A8FFF722FB82462B
:105AFC000028F0D04FF000038DF817300146079ABC
:105B0C000DF117032846FFF7B1FB9DF817700190B4
:105B1C00002F4AD1BDF81C30ADF84030CDE91177DB
:105B2C004FF6FF73CDF83CA0ADF842301397D5E992
:105B3C000132934217DB03F1010ABAF1000F30DD99
:105B4C0009FB0AF0FFF7E0F8834660B3D5E90012D1
:105B5C0009FB0212FFF7EAFE2868FFF7DDF8C5F82B
:105B6C0000B0C5F808A02B68019A09FB023A6A68D4
:105B7C00514609FB02320AF11400FFF7D7FEBAF1C5
:105B8C00000F03D00FA95046FFF75DFB6B68013384
:105B9C006B6011A8FFF7DCFC3FB10BA8FFF7D8FC3A
:105BAC0071E7BB46D8E70127F3E7019B2D6809FB9A
:105BBC000355069B1B782BB9D8F80030029A134476
:105BCC001B7CEB8008358EE721682260626863607D
:105BDC00A36809920A9A0A93E368A2600B9A0B9342
:105BEC002369E2600C9A0C93636922610D9A0D9300
:105BFC00039B089162612376CFE70000F0B5044661
:105C0C0087B00D462646194668461746FEF7D3FC64
:105C1C000B4B46F8043B694603A8FEF7CCFC03AAE1
:105C2C0039463046FFF7F0FE03A8FEF783FC6846C2
:105C3C00FEF780FC034B23602046256207B0F0BDC5
:105C4C00A47F0B00C0800B00F0B50F4685B01D493A
:105C5C000A9C384616461D4601F09DFFC0B9A4B1FA
:105C6C00294601A8FFF7BCFC1749242001F0EAFAE9
:105C7C00054630B101AB32462146FFF7BFFF134B4F
:105C8C002B6001A8FEF756FC2C46204605B0F0BD53
:105C9C000F49384601F07FFF90B9002CF5D029460A
:105CAC0001A8FFF79DFC0849242001F0CBFA05461A
:105CBC000028E6D001AB32462146FFF79FFFE0E714
:105CCC000024E2E740800B006D820B00D8800B00B3
:105CDC0044800B00014B024A1A607047ACE603206B
:105CEC0055800B002DE9F047089DD0F82090044614
:105CFC000E461746984600F0B1FD81454CD02B79E5
:105D0C00190704D56A6954492046FFF78DFAB8F192
:105D1C00000F0DD05B212046FFF77AFA4146204652
:105D2C00FFF767FA23684D49DB6802222046984743
:105D3C002B79DA0723D5D5F808802F21404601F0BE
:105D4C0076FF08B100F1010841462046FFF751FAF1
:105D5C002B799B0708D53A212046FFF759FAEA68B8
:105D6C003F492046FFF760FA2A79236812F0040FA6
:105D7C00DB6814BF3B493C490222204698472B79EB
:105D8C0058071DD529690B461A4613F8010B60B14B
:105D9C00202808D11946F7E7344800F0E0FE002827
:105DAC00ADD0BDE8F0872828EED12368521ADB6805
:105DBC002046984723682E49DB68042220469847E2
:105DCC0000213846FEF7CCFE01462046FFF711FABB
:105DDC0023682549DB680222204698471EB13146CC
:105DEC002046FFF706FA2B7913F0300F2CD02368DE
:105DFC002049DB680222204698472B79D9060AD520
:105E0C0023681D49DB68072220469847AA691B496D
:105E1C002046FFF709FA2B799A0611D5DB0605D532
:105E2C0023681049DB6802222046984723681449EE
:105E3C00DB6820460A229847E9692046FFF7D9F922
:105E4C005D212046FFF7E4F923680E49DB68204604
:105E5C000222BDE8F047184759800B0060800B0008
:105E6C0063800B0066800B006B800B0014E7032033
:105E7C0069800B006E800B0071800B0079800B0029
:105E8C007C800B0087800B002DE9F04385B0D0F8A7
:105E9C0020900C9C05460F4690461E4600F0DEFCFA
:105EAC00814505D1494800F05AFE002840F08A800F
:105EBC002B6A474A01924FF0000901A803938DF811
:105ECC00089000F0F0FF49464046FEF749FE414974
:105EDC008046012201A801F075F84146FFF77BF9D5
:105EEC003FB13D49012201A801F06CF83946FFF79A
:105EFC0072F93EB13949012201A801F063F831462B
:105F0C00FFF769F92379DF070ED5A6682F213046F4
:105F1C0001F08DFE00B1461C3149012201A801F0AF
:105F2C0051F83146FFF757F923799E0707D52D49CC
:105F3C00022201A801F046F8E16800F0C1FF2379C4
:105F4C00580714D5266933461F4613F8012B2AB17E
:105F5C00202A01D11E46F7E7282AF5D12249022230
:105F6C0001A801F02FF8BA1B314601F03BF8237958
:105F7C00190707D51D49012201A801F023F8616911
:105F8C0000F0B0FF2379DA0608D5042218490DEB8E
:105F9C00020001F017F8A16900F092FF23799B062B
:105FAC0007D51449062201A801F00CF8E169FFF7A6
:105FBC0012F901A800F061FF286A0F490368022258
:105FCC00DB68984705B0BDE8F08300BF14E70320F9
:105FDC00A8800B0036800B008A800B0000830B001E
:105FEC008C800B008E800B0091800B00987F0B0037
:105FFC0094800B0099800B0087800B00024B1A6871
:10600C00024B1A60704700BF54E40320D8E603200B
:10601C000021FEF7BDBD0000014B00229A607047C5
:10602C00DCE60320014B1860704700BF58E40320E6
:10603C0008B50B4B43B100F011FC03681B69984782
:10604C00002801DDAFF30080064B43B101F096F858
:10605C0003681B699847002801DDAFF3008008BD79
:10606C00000000000000000008B5FFF7E1FFFEF79C
:10607C005FFC014B186008BD40E703200548064A49
:10608C00064908B5121A01F011FD054B054A1A60B4
:10609C0008BD00BF00F4032004F4032054840B005B
:1060AC0000F403201E1C279A07B5002300931A4600
:1060BC006FF07701FEF796FD03B05DF804FB00006E
:1060CC0007B543880A2B08D0502B0BD1094B1B6802
:1060DC004BB103B05DF804EB1847FFF7E5FF03B0D5
:1060EC005DF804FB002300931A466FF07701FEF76E
:1060FC0079FDF4E7F0E6032010B512480021FEF715
:10610C004BFE114B1A68114B9A42114B0CBF0122DA
:10611C0000221A7001D0FFF7B1FFFEF7F9FB04461D
:10612C0001F0F4FC0B4B13B12046AFF300800021BF
:10613C000848FEF7E1FDBDE8104007480021FEF7D6
:10614C0047BD00BF31600B0000F403201E1C279AD2
:10615C00ECE6032000000000CD600B00704700202F
:10616C00704710B510210446FDF791FF204610BD75
:10617C0008B5FFF7F6FF08BD30B500224FF69C744A
:10618C00026084808D888C800C68858004600A6035
:10619C0030BD10B504460068FEF7BEFD204610BDAC
:1061AC0038B5C468F4B12378022B03D104F10C0088
:1061BC00FFF7EFFF656835B12846FDF7D3FF1021D7
:1061CC002846FDF764FFA56835B12846FDF7CAFFE0
:1061DC0010212846FDF75BFF20461421BDE838400E
:1061EC00FDF755BF38BD07B5CDE9001282680AB975
:1061FC0001F02CF8C36801AA6946984703B05DF812
:10620C0004FB0B6803604B68436013B15A6801329E
:10621C005A60704737B5044668460D46FFF7F1FFE4
:10622C00009B019A23606260002301A801930093F4
:10623C00FEF7C8FE35B1281DFEF7C4FE082128461E
:10624C00FDF725FF204603B030BD826810B50AB9B2
:10625C0000F0FCFFBDE81040C368184708B50068A3
:10626C0000F11001FFF7F1FF08BD826810B50AB903
:10627C0000F0ECFFBDE81040C368184708B5006893
:10628C0000F11001FFF7F1FF08BD000038B5002345
:10629C000446036010200D46FDF7F5FE28B10123DE
:1062AC00C0E90133024B0360C5602060204638BD55
:1062BC003C810B0038B5002383608B6804460D4687
:1062CC002BB102229847EB68E360AB68A3602046D1
:1062DC0038BD0000F0B589B004686846FFF74CFF84
:1062EC004FF00203D4E84F2F002A03D1C4E8413FFA
:1062FC000029F7D125D104F10C0569462846FFF792
:10630C003BFFBFF35B8F01236370002004F1080394
:10631C00BFF35B8F53E8006F43E80002002AF9D10A
:10632C00BFF35B8F6EB1FEF743FC78B12946304664
:10633C00FFF78BFF3046FDF715FF10213046FDF7B8
:10634C00A6FE6846FFF725FF09B0F0BD314602A84E
:10635C00FFF7B0FFE068B4F9105008B101F02EFC63
:10636C0006901020ADF81C50FDF78DFE0546E8B1E7
:10637C00002787601820FDF786FE044688B1014689
:10638C00876002A8FEF726FE049BA268A360059B0B
:10639C00049206A9E268E36004F110000592FFF78D
:1063AC00EBFE084BEB60084B2C60AB6006A8FFF7CC
:1063BC00F0FE02A8FDF7D6FE002229460348FEF7A0
:1063CC00FFFBB7E769620B00ED640B00C5690B00BE
:1063DC002DE9F04F8BB005469DF850A00F46904626
:1063EC009946FEF771FC07AE834638BB4FF62E7309
:1063FC00059005A93046ADF81830FFF7BDFE142006
:10640C00FDF741FE044648B1022303700123C0E9A5
:10641C0001BB437031460C30FFF7AEFE28462146D7
:10642C0040F8044BFFF732FF3046FFF7B2FE05A8E9
:10643C00FFF7AFFE28460BB0BDE8F08F0C2300240D
:10644C001420CDE908440793FDF71DFE014618B151
:10645C00C0E901440470447004A80391FFF716FFCF
:10646C001E4B08930820FDF70EFE044610B103A93D
:10647C00FFF7C7FE00965FFA8AF34A464146384654
:10648C000994FEF729FCB8B9039B5B7803F0FF0273
:10649C0093B94FF69C7305A903A80592ADF8183073
:1064AC00FFF718FF05A8FFF774FE05A80999FFF779
:1064BC00B1FE06A8FEF786FD03A905A8FFF7A1FE0D
:1064CC00059B069A2B606A60002306A80693059329
:1064DC00FEF778FD04A8FEF775FDABE769650B00C8
:1064EC00012AF8B5054603D10B6803600020F8BDFE
:1064FC00022A10D0032AF9D10468002CF6D004F13A
:10650C001000FFF746FE2046FDF72CFE1821204612
:10651C00FDF7BDFDEAE718200E68FDF7B4FD044653
:10652C0050B13146FFF7C6FE3069B6F9147008B1A8
:10653C0001F044FB2061A7822C60D7E738B500231B
:10654C0083608B6804460D462BB102229847EB689A
:10655C00E360AB68A360204638BD0000F0B589B09D
:10656C0004460D4601A81146FFF754FEA4B124B20F
:10657C001DB1284601F022FB054601A803A903958D
:10658C00ADF81040FFF7A6FE03A8FFF702FE02A825
:10659C00FEF718FD09B0F0BD019D0123D5E84F2F82
:1065AC00002A03D1C5E8413F0029F7D1EFD12B7365
:1065BC00BFF35B8F6B702B1DBFF35B8F53E8006FCA
:1065CC0043E80042002AF9D1BFF35B8F002EDED0E6
:1065DC002046FEF7EDFA074660B105F10C01304696
:1065EC00FFF743FE3046FDF7BDFD10213046FDF7A9
:1065FC004EFDCCE7314603A8FFF7A0FF2B7B8DF8AF
:10660C001C301020FDF73FFD0546D0B187601420EB
:10661C00FDF739FD044678B18760014603A8FEF703
:10662C00D9FC059BA268A360069B0592E268E36017
:10663C009DF81C3006922374064BEB60064B2C60C5
:10664C00AB6003A8FDF78EFD002229460348FEF738
:10665C00B7FAC7E789620B006D660B00C5690B00C2
:10666C00012A70B5044603D10B680360002070BD8D
:10667C00022A0CD0032AF9D10468002CF6D020464B
:10668C00FDF770FD14212046FDF701FDEEE7142007
:10669C000E68FDF7F8FC054620B13146FFF74EFFBA
:1066AC00337C2B742560E1E7704710B51821044644
:1066BC00FDF7EDFC204610BDF0B5037D062B8DB02B
:1066CC000E4600F104074FF0000412D000F108054B
:1066DC0015F8011D0A223046FEF7CDFCAF420444EA
:1066EC0019D0002CF4D02E213046FEF7B5FC044412
:1066FC00EEE72F236A4639460A208DF80040FEF754
:10670C003FF9684601F077FA33680246DB68694660
:10671C0030469847044620460DB0F0BD10B5054BE9
:10672C000446112240F8043B002101F0E7F9204611
:10673C0010BD00BF58810B000346074A10B543F843
:10674C00042B01F1100251F8044B43F8044B914215
:10675C00F9D10A781A7010BD58810B0010B59DF84C
:10676C00084044EA032343EA024242EA016104235B
:10677C004160037510BD000007B5064B0360CB7874
:10678C0000938B784A780978FFF7E8FF03B05DF83F
:10679C0004FB00BF58810B00417470477047704771
:1067AC0008B50021007CFEF7B3F940EAE07008BDA3
:1067BC0008B50121007CFEF7ABF940EAE07008BD9A
:1067CC0008B5007CFEF79CF920EAE07008BD08B51E
:1067DC00007CFEF78DF920EAE07008BD13B5044685
:1067EC00007C0191FEF78CF90028019901DC607C9A
:1067FC0020B1207CFEF794F920EAE07002B010BDC5
:10680C00007CFEF795B910B514210446FDF73FFC4A
:10681C00204610BD10B54FF47A730446084600218B
:10682C00C4E90113044B23600123207463741146E3
:10683C00FEF746F9204610BD6C810B00007C00224F
:10684C00FEF746B9007CFEF74BB910B5142204468E
:10685C00002101F053F9204610BD000010B50F4C7B
:10686C0088B003A8FFF7F1FF2178BFF35B8F11F01D
:10687C0001010FD120460191FDF718FC019948B197
:10688C0003AA0748FFF7C6FF2046FDF714FC05488E
:10689C0001F0FEF8024808B010BD00BFF4E603207A
:1068AC00F8E60320A9670B00004700002DE9FF4123
:1068BC0000241D460F4690460646FEF721F8A542D9
:1068CC004FF00403ADF80D408DF80C308DF80F40EF
:1068DC00A2BF9DF828308DF80E3003AC0749009408
:1068EC0043463A463046A8BF8DF80D50FEF700F8E7
:1068FC00B0FA80F0400904B0BDE8F081B5680B0037
:10690C0070474174704708B5007CFEF779F820EAAF
:10691C00E07008BD08B5007CFEF74AF820EAE0708C
:10692C0008BD08B5007CFEF753F840EAE07008BDDE
:10693C0008B5007CFEF744F840EAE07008BD007C26
:10694C00FEF74EB837B5457C04462DB1207C03B01C
:10695C00BDE83040FEF724B8007C0191FEF750F8FA
:10696C0000280199F2DC284603B030BD10B5142183
:10697C000446FDF78CFB204610BD000010B54FF40B
:10698C007A730446084611460022C4E90123044BDD
:10699C002360012320746374FEF742F8204610BD77
:1069AC009C810B00007C0023FEF732B80022FFF71D
:1069BC00F9BF007CFDF7ECBF10B5836804460BB93A
:1069CC0000F044FCC3689847A3681BB1032221461E
:1069DC002046984720461021BDE81040FDF757BBD4
:1069EC007047F8B5064615460C468F18BC4206D0C3
:1069FC00336814F8011B9B6830469847F6E7284625
:106A0C00F8BD007C0022FEF713B8007C0021FEF7D5
:106A1C0017B8007C0021FEF71BB8007C0021FEF7A4
:106A2C001FB8007C0021FEF723B810B514210446D2
:106A3C00FDF72DFB204610BD38B5044615464FF426
:106A4C007A730022C4E90123094B217408462360A0
:106A5C002946FEF71DF8BF3008D16B69DB0705D559
:106A6C006868FEF759F9E868FEF756F9204638BD14
:106A7C00CC810B00002240681146FEF7D5B80022ED
:106A8C0040681146FEF7F0B8002240681146FEF748
:106A9C00FBB840680022FEF7EFB84068002281F096
:106AAC000101FEF7D9B8002340681A461946FEF7D3
:106ABC00CBB8002340681A461946FEF7BDB8002231
:106ACC0040681146FEF7A0B8406800220221FEF78C
:106ADC00A3B8002340681A46FEF78EB8024B042276
:106AEC005A60024A1A6070470CE70320F4810B00CD
:106AFC00002340681A46FEF77FB840680022022146
:106B0C00FEF78AB8002240681146FEF77DB80022D5
:106B1C0040681146FEF788B8002340681A461946AB
:106B2C00FEF78AB8002340681A461946FEF78CB85F
:106B3C0040680021FEF7B0B840680021FEF7B4B8F9
:106B4C004068002281F00101FEF786B840680022FF
:106B5C00FEF792B8002240681146FEF795B8002265
:106B6C0040681146FEF780B82DE9F04395B0144605
:106B7C000D460746FFF7D2FD00211C220DA80091FF
:106B8C0000F0BCFF40230C9320466B460CAA00215E
:106B9C00FDF786FE044600284BD1024601216868A9
:106BAC00FEF742F80221804622466868FEF73CF860
:106BBC00009E81462146002E3BD0002939D17368B6
:106BCC00022B03D00A2B11D0F669F4E7B8F1000FB1
:106BDC00FAD0716906A8043107ADFFF7CDFD0FCDD2
:106BEC003C1D0FC42B6823704146EDE7B9F1000F33
:106BFC00EAD07469102201A800F080FF06238DF8FA
:106C0C00143001AD04F108031834186859682A4689
:106C1C0003C20833A3421546F7D101A906A807AD54
:106C2C00FFF78AFD0FCD3C1D0FC42B68237049461E
:106C3C00CAE70098FDF72CFE384615B0BDE8F08386
:106C4C00024B034A1A6000225A60704714E7032073
:106C5C0030820B0000F11003012213F8101C0129E3
:106C6C00184608D153F8041C02EB4102013A03F117
:106C7C001003F2D17047022904BF53F8041C5218B8
:106C8C00F4E70EB4F0B588B000AF07F1340510216D
:106C9C0055F8042B7A6004462B467818FD60FEF7F5
:106CAC0053F80F287A681AD900F1080323F0070368
:106CBC006E46ADEB030D411C2B466846FD60FEF79E
:106CCC0043F8021E04DD236869469B6820469847FA
:106CDC00B5462037BD46BDE8F04003B070470028EC
:106CEC00F7D0236802469B6807F1100120469847AD
:106CFC00EFE738B50B6803604D6843689D42044666
:106D0C0008D015B16B6801336B60606808B1FEF791
:106D1C0033F9656038BD07B503688DF807109B68BB
:106D2C0001220DF10701984703B05DF804FB0B46F7
:106D3C001146002210B5C0E90022044683600BB94D
:106D4C00204610BDFFF7D5FFFAE78368EBB11A7840
:106D5C00032A1AD8DFE802F00417021B052070473B
:106D6C0002685B685268D05C2D2812D0A0F1300309
:106D7C00092B0ED974280ED066280CD0A0F16E0306
:106D8C005842584170470620704700207047042035
:106D9C007047032070470220704710B50446FFF778
:106DAC00D4FF02280ED0C31EDBB2012B14D82268EC
:106DBC00A36850685B68BDE810400A2200211844A3
:106DCC0000F0CCBF2268A36852685B68D05CA0F16D
:106DDC0074035842584110BD0020FCE738B500231D
:106DEC00C0E9003304460E48C4E90203A9B10B788C
:106DFC00032B06D08BB9136858684B68C35C6E2B99
:106E0C0007D013684D6858688B6828445B1BA060DA
:106E1C00E36011462046FFF76CFF204638BD00BFEB
:106E2C0089800B0038B500250B46C0E90055C0E938
:106E3C000255C0E90455044611464BB11A78012A93
:106E4C0006D103F11002DB6882604361FFF751FF4A
:106E5C00204638BD10B54369044663B18068E060D4
:106E6C00013B1030A0602061636113B1FFF7F2FEAB
:106E7C00A060012000E0184610BD10B57D2104462D
:106E8C00FFF749FF01232371204610BD08B5037994
:106E9C00012B02D0022B04D008BD2C21FFF73BFFA5
:106EAC00FAE73A21FAE710B50446FFF7EFFF204660
:106EBC007B21FFF730FF00232371204610BD00001B
:106ECC0013B504460191FFF7E1FF2368019ADB68D3
:106EDC0003492046984701232046237102B010BD78
:106EEC0063800B0013B504460191FFF7CFFF2368B5
:106EFC00019ADB68034920469847012320462371F9
:106F0C0002B010BD64820B002DE9F0470D46222122
:106F1C0090460446FFF7FFFEDFF8A490A8442F46E6
:106F2C004745BA463DD017F8016B222E06D05C2E91
:106F3C0004D0304600F0B2FD0028F1D12368AAEB52
:106F4C0005029B682946204698475C212046FFF79E
:106F5C00E2FE0D2E0AD8072E1CD9A6F10803052B2C
:106F6C0018D8DFE803F00D0F11171315222E01D0DE
:106F7C005C2E0FD131462046FFF7CDFE3D46CFE7C4
:106F8C006221F8E77421F6E76E21F4E76621F2E757
:106F9C007221F0E723683246DB6849462046984761
:106FAC00ECE7BD4205D023687A1B9B682946204636
:106FBC00984722212046FFF7AEFEBDE8F08700BFC0
:106FCC0067820B0013B50446CDE90021FFF75EFF85
:106FDC002046DDE90021FFF797FF022320462371AD
:106FEC0002B010BD13B50446CDE90021FFF74EFFEA
:106FFC002046DDE90021FFF787FF0123204623719E
:10700C0002B010BD232813B502D9002002B010BD68
:10701C00A0F10B03022B1AD8174C2178BFF35B8F0E
:10702C0011F001010BD120460191FDF73FF80199B8
:10703C0028B11248FDF7F6FE2046FDF73CF80F4B41
:10704C001878FDF735FD0028DFD10120DEE7012897
:10705C0009D800F0D3F80021007CFDF711FD80F079
:10706C000100C0B2D2E709380128EED800F086F84A
:10707C00007CFDF7BDFCF2E71CE7032020E70320B2
:10708C00232838B504460D460AD8FF2908D0FFF747
:10709C00B9FF28B129462046BDE83840FDF708BCA9
:1070AC0038BD38B504460D46FDF70AFCFF2810D054
:1070BC00062804D84D2323FA00F0C30709D4204630
:1070CC00FFF7A0FF28B129462046BDE83840FDF760
:1070DC00FFBB38BD10B50446FDF7F2FB031FDBB256
:1070EC00012B08D92046FFF78DFF20B12046BDE8C3
:1070FC001040FDF7F5BB002010BD2DE9F84390467C
:10710C00072500240E46074630460121FFF7C9FF2C
:10711C00C5F1070964B23846B8F1000F0ED1FFF77C
:10712C00D9FF00FA09F0044300213046FFF7B9FFFC
:10713C00013DE4B2E8D22046BDE8F883FFF7CAFF70
:10714C00A840F0E77047000038B5044614252A46DD
:10715C00002100F0D3FC25804025074925812846D5
:10716C00258200F071F804496060284600F06CF844
:10717C00E060204638BD00BF6D820B0030B50E4D6F
:10718C002978BFF35B8F11F0010487B011D1284629
:10719C00FCF78CFF68B101A8FFF7D6FF01AA2146C6
:1071AC000648FFF7EBFB2846FCF785FF044800F088
:1071BC006FFC024807B030BD28E703202CE7032002
:1071CC0051710B007047000038B50A4B0360012366
:1071DC00044643610849202000F036F82025606001
:1071EC000549A560284600F02FF8C4E903052046A0
:1071FC0038BD00BF180001006D820B0030B50E4D7C
:10720C002978BFF35B8F11F0010487B011D12846A8
:10721C00FCF74CFF68B16846FFF7D6FF6A4621467B
:10722C000648FFF709FC2846FCF745FF044800F028
:10723C002FFC024807B030BD44E7032048E7032089
:10724C00D1710B00FCF71FBFFCF71FBF08B5FDF792
:10725C0083FD000081F0004102E000BF83F0004399
:10726C0030B54FEA41044FEA430594EA050F08BFD5
:10727C0090EA020F1FBF54EA000C55EA020C7FEA99
:10728C00645C7FEA655C00F0E2804FEA5454D4EB16
:10729C005555B8BF6D420CDD2C4480EA020281EAE0
:1072AC00030382EA000083EA010180EA020281EA18
:1072BC000303362D88BF30BD11F0004F4FEA01316A
:1072CC004FF4801C4CEA113102D0404261EB410179
:1072DC0013F0004F4FEA03334CEA133302D05242FF
:1072EC0063EB430394EA050F00F0A780A4F10104BB
:1072FC00D5F1200E0DDB02FA0EFC22FA05F28018F5
:10730C0041F1000103FA0EF2801843FA05F35941DA
:10731C000EE0A5F120050EF1200E012A03FA0EFC59
:10732C0028BF4CF0020C43FA05F3C01851EBE37183
:10733C0001F0004507D54FF0000EDCF1000C7EEBA0
:10734C0000006EEB0101B1F5801F1BD3B1F5001FDE
:10735C000CD349085FEA30004FEA3C0C04F10104FD
:10736C004FEA445212F5800F80F09A80BCF1004F26
:10737C0008BF5FEA500C50F1000041EB045141EAA8
:10738C00050130BD5FEA4C0C404141EB0101013C71
:10739C0028BFB1F5801FE9D291F0000F04BF014660
:1073AC000020B1FA81F308BF2033A3F10B03B3F132
:1073BC0020020CDA0C3208DD02F1140CC2F10C02C2
:1073CC0001FA0CF021FA02F10CE002F11402D8BF20
:1073DC00C2F1200C01FA02F120FA0CFCDCBF41EAEC
:1073EC000C019040E41AA2BF01EB0451294330BDBB
:1073FC006FEA04041F3C1CDA0C340EDC04F1140498
:10740C00C4F1200220FA04F001FA02F340EA03006E
:10741C0021FA04F345EA030130BDC4F10C04C4F1B4
:10742C00200220FA02F001FA04F340EA0300294694
:10743C0030BD21FA04F0294630BD94F0000F83F4DE
:10744C00801306BF81F480110134013D4EE77FEAC1
:10745C00645C18BF7FEA655C29D094EA050F08BF0D
:10746C0090EA020F05D054EA000C04BF19461046EE
:10747C0030BD91EA030F1EBF0021002030BD5FEA32
:10748C00545C05D14000494128BF41F0004130BD5A
:10749C0014F580043CBF01F5801130BD01F00045AE
:1074AC0045F0FE4141F470014FF0000030BD7FEA21
:1074BC00645C1ABF194610467FEA655C1CBF0B461C
:1074CC00024650EA013406BF52EA033591EA030F33
:1074DC0041F4002130BD00BF90F0000F04BF00212B
:1074EC00704730B54FF4806404F132044FF000055E
:1074FC004FF0000150E700BF90F0000F04BF0021D7
:10750C00704730B54FF4806404F1320410F000453C
:10751C0048BF40424FF000013EE700BF42004FEA37
:10752C00E2014FEA31014FEA02701FBF12F07F43B4
:10753C0093F07F4F81F06051704732F07F4208BF6B
:10754C00704793F07F4F04BF41F40021704730B572
:10755C004FF4607401F0004521F000411CE700BFBE
:10756C0050EA010208BF704730B54FF000050AE041
:10757C0050EA010208BF704730B511F0004502D542
:10758C00404261EB41014FF4806404F132045FEA44
:10759C00915C3FF4D8AE4FF003025FEADC0C18BFED
:1075AC0003325FEADC0C18BF033202EBDC02C2F1DF
:1075BC00200300FA03FC20FA02F001FA03FE40EA71
:1075CC000E0021FA02F11444BDE600BF70B54FF075
:1075DC00FF0C4CF4E06C1CEA11541DBF1CEA135553
:1075EC0094EA0C0F95EA0C0F00F0DEF82C4481EABB
:1075FC00030621EA4C5123EA4C5350EA013518BFDB
:10760C0052EA033541F4801143F4801338D0A0FBC7
:10761C0002CE4FF00005E1FB02E506F00042E0FB74
:10762C0003E54FF00006E1FB03569CF0000F18BF7A
:10763C004EF0010EA4F1FF04B6F5007F64F5407422
:10764C0004D25FEA4E0E6D4146EB060642EAC621B5
:10765C0041EA55514FEAC52040EA5E504FEACE2E22
:10766C00B4F1FD0C88BFBCF5E06F1ED8BEF1004F25
:10767C0008BF5FEA500E50F1000041EB045170BDA1
:10768C0006F0004646EA010140EA020081EA0301E5
:10769C00B4EB5C04C2BFD4EB0C0541EA045170BDE1
:1076AC0041F480114FF0000E013C00F3AB8014F15B
:1076BC00360FDEBF002001F0004170BDC4F10004A4
:1076CC00203C35DA0C341BDC04F11404C4F1200525
:1076DC0000FA05F320FA04F001FA05F240EA020080
:1076EC0001F0004221F0004110EBD37021FA04F6B6
:1076FC0042EB06015EEA430E08BF20EAD37070BD70
:10770C00C4F10C04C4F1200500FA04F320FA05F0CE
:10771C0001FA04F240EA020001F0004110EBD370D0
:10772C0041F100015EEA430E08BF20EAD37070BD40
:10773C00C4F1200500FA05F24EEA020E20FA04F319
:10774C0001FA05F243EA020321FA04F001F00041C8
:10775C0021FA04F220EA020000EBD3705EEA430E39
:10776C0008BF20EAD37070BD94F0000F0FD101F068
:10777C000046400041EB010111F4801F08BF013CA1
:10778C00F7D041EA060195F0000F18BF704703F0DF
:10779C000046520043EB030313F4801F08BF013D66
:1077AC00F7D043EA0603704794EA0C0F0CEA135522
:1077BC0018BF95EA0C0F0CD050EA410618BF52EADC
:1077CC004306D1D181EA030101F000414FF00000E2
:1077DC0070BD50EA410606BF1046194652EA4306F0
:1077EC0019D094EA0C0F02D150EA013613D195EA64
:1077FC000C0F05D152EA03361CBF104619460AD1AC
:10780C0081EA030101F0004141F0FE4141F47001B5
:10781C004FF0000070BD41F0FE4141F4780170BDA5
:10782C0070B54FF0FF0C4CF4E06C1CEA11541DBF0A
:10783C001CEA135594EA0C0F95EA0C0F00F0A7F80C
:10784C00A4EB050481EA030E52EA03354FEA013139
:10785C0000F088804FEA03334FF0805545EA13134C
:10786C0043EA12634FEA022245EA111545EA106514
:10787C004FEA00260EF000419D4208BF964244F1AB
:10788C00FD0404F5407402D25B084FEA3202B61ACA
:10789C0065EB03055B084FEA32024FF480104FF49E
:1078AC00002CB6EB020E75EB030E22BFB61A754612
:1078BC0040EA0C005B084FEA3202B6EB020E75EBA5
:1078CC00030E22BFB61A754640EA5C005B084FEA0D
:1078DC003202B6EB020E75EB030E22BFB61A7546DA
:1078EC0040EA9C005B084FEA3202B6EB020E75EBE5
:1078FC00030E22BFB61A754640EADC0055EA060EA6
:10790C0018D04FEA051545EA16754FEA06164FEAE8
:10791C00C30343EA52734FEAC2025FEA1C1CC0D194
:10792C0011F4801F0BD141EA00014FF000004FF021
:10793C00004CB6E711F4801F04BF01430020B4F1E2
:10794C00FD0C88BFBCF5E06F3FF6AFAEB5EB030C9A
:10795C0004BFB6EB020C5FEA500C50F1000041EB97
:10796C00045170BD0EF0004E4EEA113114EB5C0464
:10797C00C2BFD4EB0C0541EA045170BD41F4801137
:10798C004FF0000E013C90E645EA060E8DE60CEA3F
:10799C00135594EA0C0F08BF95EA0C0F3FF43BAF5C
:1079AC0094EA0C0F0AD150EA01347FF434AF95EA13
:1079BC000C0F7FF425AF104619462CE795EA0C0FF7
:1079CC0006D152EA03353FF4FDAE1046194622E7C4
:1079DC0050EA410618BF52EA43067FF4C5AE50EA9E
:1079EC0041047FF40DAF52EA43057FF4EBAE12E78E
:1079FC004FEA4102B2F1E04324BFB3F5001CDCF1C5
:107A0C00FE5C0DD901F0004C4FEAC0024CEA5070FC
:107A1C00B2F1004F40EB830008BF20F0010070472B
:107A2C0011F0804F21D113F13872BCBF01F000402E
:107A3C00704741F480114FEA5252C2F11802C2F160
:107A4C00200C10FA0CF320FA02F018BF40F00100E1
:107A5C004FEAC1234FEAD32303FA0CFC40EA0C0093
:107A6C0023FA02F34FEA4303CCE77FEA625307D1D0
:107A7C0050EA01331EBF4FF0FE4040F44000704707
:107A8C0001F0004040F0FE4040F40000704700BFA1
:107A9C00002301461A46184600F06AB9024B1844F6
:107AAC00407800F09700704702830B000A44914223
:107ABC0000F1FF3300D1704710B511F8014B03F8FA
:107ACC00014F9142F9D110BD884210B501EB02046F
:107ADC0002D98442234607D8431EA14208D011F88C
:107AEC00012B03F8012FF8E7024401468A4200D12A
:107AFC0010BD13F8014D02F8014DF7E7024403469F
:107B0C00934200D1704703F8011BF9E738B5104BCD
:107B1C001D68AB6B0446B3B91820FDF7F5F80246A7
:107B2C00A86320B90B4B0C484221FDF72DF90B49EA
:107B3C000B4BC0E900130B4B83600B23838100219B
:107B4C000120C2E90401AB6B00221C615A6138BDF3
:107B5C0058E403206E820B0085820B000E33CDABF4
:107B6C0034126DE6ECDE0500C9B2034610F8012BA9
:107B7C001AB18A42F9D118467047002918BF002360
:107B8C00F9E710B50446FFF7EFFF18B9204600F0EF
:107B9C0032F8204410BD10F8012B11F8013B012ADA
:107BAC0028BF9A42F7D0D01A7047034611F8012B20
:107BBC0003F8012B002AF9D170470000024B014653
:107BCC00186800F003B800BF58E4032037B504462A
:107BDC0008460D4600F00FF8421C11462046019253
:107BEC00FDF7C2F8044618B1019A2946FFF75EFF6B
:107BFC00204603B030BD034613F8012B002AFBD1FD
:107C0C00181A0138704710B57AB103460139841837
:107C1C0013F8010B11F8012F904201D1A34201D1AD
:107C2C00801A10BD0028F3D1FAE71046F9E738B5F1
:107C3C0003460C4669B9BDE83840FFF795BF431CB5
:107C4C00054621461846FFF78FFF0028F7D1284636
:107C5C0038BD0025F5E70000012B2DE9F04701D0D8
:107C6C00242B06D9FDF788F8162303600020BDE805
:107C7C00F087DFF8E4C00D462E4615F8014B14F8DA
:107C8C000C7017F00807F7D12D2C32D12C78012766
:107C9C00B51C002B5BD0102B09D1302C07D12C78C4
:107CAC0004F0DF04582C4DD16C781023023507F109
:107CBC00004808F1FF384FF0000CB8FBF3F96646AA
:107CCC0003FB198AA4F1300EBEF1090F16D87446C5
:107CDC00A34224DDBCF1000F1EDBB1451CD301D146
:107CEC00A24519DB06FB03464FF0010C15F8014BBE
:107CFC00E8E72B2C04BF2C78B51CCAE7A4F1410E85
:107D0C00BEF1190F01D8373CE2E7A4F1610EBEF1C8
:107D1C00190F04D8573CDBE74FF0FF3CE6E7BCF10A
:107D2C00000F05DA22230360464642B930469EE72F
:107D3C0007B17642002AF9D0BCF1000F00D0691EC1
:107D4C001160F3E73024002BB1D10823AFE7302CBE
:107D5C00A5D00A23ABE700BF03830B0013460A46EA
:107D6C00014602480068FFF777BF00BF58E40320C4
:107D7C002DE9F843DFF8B8800646D8F800001F4616
:107D8C000D46914600F056F8254B1C6834B9254C2D
:107D9C001C60254B13B11B68C4F8883063681F2B1B
:107DAC0007DDD8F8000000F047F84FF0FF30BDE8D1
:107DBC00F8834EB3D4F8880088B91C4B23B9D8F893
:107DCC00000000F038F8F0E74FF48470FCF79CFFEB
:107DDC000028F4D00023C0E94033C4F8880063685D
:107DEC0040F8239001229A4000EB8301D0F8003137
:107DFC001343C0F80031022EC1F8807002BFD0F8D6
:107E0C0004311343C0F804316368D8F800005A1CDD
:107E1C000233626044F8235000F00EF80020C6E7ED
:107E2C00E8E703205CE7032000000000154D0B0081
:107E3C00BCE4032070477047704700001D400B00E6
:107E4C0059400B0081400B0085400B0000000000E6
:107E5C0043616C6C206F6E20707572652076697250
:107E6C007475616C005B25642C25642C25642C25B1
:107E7C00642C25642C25642C25642C25642C256409
:107E8C002C25642C25642C25642C25642C25642C31
:107E9C0025642C25642C25642C25642C25642C2528
:107EAC00642C25642C25642C25642C25642C2564D9
:107EBC002C25642C25642C25642C25642C25642C01
:107ECC0025642C25642C25642C25642C25642C25F8
:107EDC00642C25642C25642C25642C25642C2564A9
:107EEC002C25642C25642C25642C25642C25642CD1
:107EFC0025642C25642C25642C25642C25642C25C8
:107F0C00642C25642C25642C25642C25642C256478
:107F1C002C25642C25642C25642C25642C25642CA0
:107F2C0025642C25642C25642C25642C25642C2597
:107F3C00642C25642C25642C25642C25642C256448
:107F4C002C25642C25642C25642C25642C25642C70
:107F5C0025642C25642C25642C25642C25642C2567
:107F6C00642C25642C25642C25642C25642C256418
:107F7C002C25645D007075626C69736865643A20C9
:107F8C002573006765742D77656967687400000058
:107F9C0000000000000000000000000000000000D5
:107FAC00A1400B00C9400B000000000000000000C5
:107FBC0029410B005D410B00F15C0B00CB400B0029
:107FCC0057617368696E675F4C696E655F44617475
:107FDC00610000000000000000000000F5460B00EE
:107FEC00F7460B000000000000000000134E0B00D1
:107FFC00094E0B00FF4D0B00F54D0B00E94D0B002E
:10800C00DD4D0B003D6B0B00456B0B00D14D0B0098
:10801C00C94D0B00BF4D0B00B54D0B00756B0B0024
:10802C00626175640053657269616C0053657269B5
:10803C00616C31004A534F4E53747265616D4C6FD5
:10804C006748616E646C6572006170700025303138
:10805C00307520005D20002564002C200028293A72
:10806C002000205B00636F6465203D2000256900C3
:10807C0064657461696C73203D20000D0A006D000D
:10808C0066006C6E00666E00636F646500646574F8
:10809C0061696C0000000000000000003D510B0005
:1080AC0063510B0021510B008F6C0B000000000082
:1080BC000000000099550B00B1550B00F15C0B0052
:1080CC00CB400B000000000000000000C5550B0069
:1080DC00D9550B00955E0B0029510B0000000000D8
:1080EC00000000003B510B0071510B00555C0B0064
:1080FC002B510B00000000000000000039510B0058
:10810C007F510B0001550B00A1510B0025592D255A
:10811C006D2D25645425483A254D3A2553257A0072
:10812C0061736374696D650000000000000000005D
:10813C0069610B006F610B00AD610B007D610B0081
:10814C006B610B000000000000000000C5660B0016
:10815C00B5660B00B7660B000000000000000000C5
:10816C00AB670B0013680B00E9670B0015500B0095
:10817C00DB670B00AD670B00BD670B000D680B00D8
:10818C00CD670B00A5670B0000000000000000008D
:10819C000D690B0079690B0051690B0015500B0030
:1081AC0021690B003D690B002F690B004B690B001B
:1081BC000F690B0013690B000000000000000000A9
:1081CC00ED690B00376A0B000F6A0B00EF690B00AF
:1081DC00176A0B001F6A0B00276A0B002F6A0B0033
:1081EC000000000000000000DF6A0B00D56A0B00E5
:1081FC00CB6A0B00816A0B00BF6A0B00B36A0B00E1
:10820C003D6B0B00456B0B00A76A0B009F6A0B00C4
:10821C00956A0B008B6A0B00756B0B00000000005D
:10822C0000000000FD6A0B00076B0B00116B0B00CC
:10823C001B6B0B00256B0B00316B0B003D6B0B00AC
:10824C00456B0B004D6B0B00596B0B00616B0B00FE
:10825C006B6B0B00756B0B00257500752530347836
:10826C0000005245454E54206D616C6C6F63207359
:10827C007563636565646564002F6D6E742F776F2D
:10828C00726B73706163652F776F726B7370616360
:10829C00652F4743432D31302D706970656C696EC5
:1082AC00652F6A656E6B696E732D4743432D3130B4
:1082BC002D706970656C696E652D34385F323032A3
:1082CC0030313132345F313630363138303634314A
:1082DC002F7372632F6E65776C69622F6E65776C86
:1082EC0069622F6C6962632F7374646C69622F729C
:1082FC00616E642E6300002020202020202020208E
:10830C002828282828202020202020202020202039
:10831C002020202020202088101010101010101069
:10832C0010101010101010040404040404040404AD
:10833C000410101010101010414141414141010135
:10834C000101010101010101010101010101010111
:10835C00010110101010101042424242424202021F
:10836C0002020202020202020202020202020202E1
:10837C00020210101010200000000000000000008D
:10838C0000000000000000000000000000000000E1
:10839C0000000000000000000000000000000000D1
:1083AC0000000000000000000000000000000000C1
:1083BC0000000000000000000000000000000000B1
:1083CC0000000000000000000000000000000000A1
:1083DC000000000000000000000000000000000091
:1083EC000000000000000000000000000000000081
:1083FC00000000000000000029460B001D4E0B0081
:10840C00454E0B0005500B00E15C0B0009600B00A6
:10841C0025600B00E96A0B004D6C0B00000000009E
:04842C00000000004C
:10843000040000001400000003000000474E550037
:10844000C1862BC5044BE813AFF238F8C5B64A28ED
:0484500038D890D7B1
:048454000000000024
:10845800110000000F0000001200000010000000D2
:1084680000A403C700A403C7CC7F0B0013000000BF
:10847800F0800B0008810B002C810B005CE40320CA
:1084880000000000000000000000000000000000E4
:1084980000000000000000000000000000000000D4
:1084A80000000000000000000000000000000000C4
:1084B80000000000000000000000000000000000B4
:1084C80000000000000000000000000000000000A4
:1084D8000000000000000000000000000000000094
:0484E800ECE703209A
:1084EC00FFFFFFFF00000102030405060708090A4D
:1084FC000B0C0D0E0F101112131415161718191A48
:08850C001B1C1D1E1F2028008E
:04851400785634124F
:04000003B000401CED
:00000001FF
